:020000040800F2
:10000000002000203D020008450200084D020008C3
:1000100000000000000000000000000000000000E0
:100020000000000000000000000000005502000871
:1000300000000000000000005D02000865020008EA
:100040006D0200086D0200086D0200086D020008D4
:100050006D0200086D0200086D0200086D020008C4
:100060006D0200086D0200086D0200086D020008B4
:100070006D0200086D0200086D0200086D020008A4
:100080006D0200086D020008000000006D0200080B
:100090006D0200086D0200086D0200086D02000884
:1000A0006D0200086D0200086D0200086D02000874
:1000B0006D020008000000006D0200080000000052
:1000C0005FF808F180B58EB000AF4B4B4B4A1A6019
:1000D0004B4B4A4A1A604B4B3B634B4BFB623B6BAF
:1000E000BB6204E0BB6A1A1DBA6200221A60FA6A97
:1000F000BB6A9A42F6D8404B1B68002B03D1404B99
:100100001B68002B00D0FEE7404B3C4A1A60404B76
:100110003A4A1A603F4B7B623F4B3B623F4BFB616D
:100120003B6ABB6107E0BB691A1DBA617A6A111D9F
:10013000796212681A60FA69BB699A42F3D8334B44
:100140001A68374B9A4205D1314B1A68304B1B68FD
:100150009A4200D0FEE700F0A5F83A1D3B1C101CA7
:10016000191C00F08DF82F4A2F4BD31A9B107B617E
:1001700000233B6107E02C4B3A699200D358984723
:100180003B6901333B617A693B699A42F3DC274A58
:10019000274BD31A9B107B6100233B6107E0244B64
:1001A0003A699200D35898473B6901333B617A69B9
:1001B0003B699A42F3DC7A683B68101C191C00F01A
:1001C0002DF9031C7B631B4A1B4BD31A9B10FB604E
:1001D000FB68BB6008E0BB685A1E174B9200D358FF
:1001E0009847BB68013BBB60BB68002BF3DC7B6BB3
:1001F000181C00F03FF8C04610000020BABADECA52
:1002000018000020100000201C000020000000202A
:100210000C000020F0040008000000201000002066
:100220007856341274020008740200087402000840
:1002300074020008740200087402000880B500AF60
:10024000FFF740FF80B500AFFEE7C04680B500AFC6
:10025000FEE7C04680B500AFFEE7C04680B500AF00
:10026000FEE7C04680B500AFFEE7C04680B500AFF0
:04027000FEE7C0469F
:1002740080B582B000AF7860FEE7C04680B582B03A
:1002840000AF786039607B6801221A603B68034ADA
:100294001A60C046BD4602B080BDC04604000020BE
:1002A40080B500AF00F002F8BD4680BD80B500AF58
:1002B4001B4B1B4A126801210A431A60184B184A47
:1002C4005168184A0A405A60154B154A1168164A73
:1002D4000A401A60124B124A1168144A0A401A6002
:1002E4000F4B0F4A5168124A0A405A600C4B0C4A91
:1002F400D26A0F218A43DA62094B094A116B0D4A0B
:100304000A401A63064B064A526B01218A435A6318
:10031400034B00229A6000F00FF8BD4680BDC04632
:10032400001002400CB8FF08FFFFF6FEFFFFFBFFC2
:10033400FFFFC0FFACFEFFFF80B582B000AF00231B
:100344007B6000233B60314B304A126880214902B4
:100354000A431A602D4B1A6880239B0213403B60AA
:100364007B6801337B603B68002B04D17A68A0234F
:10037400DB019A42EED1254B1A6880239B0213407D
:1003840002D001233B6001E000233B603B68012B6A
:1003940038D11F4B11221A601C4B1C4A52685A60F8
:1003A4001A4B1A4A52685A60184B184A5168194A2B
:1003B4000A405A60154B154A5268882149030A437A
:1003C4005A60124B114A1268802149040A431A6088
:1003D400C0460E4B1A6880239B041340F9D00B4B84
:1003E4000A4A526803218A435A60084B074A5268F2
:1003F40002210A435A60C046044B5A680C23134036
:10040400082BF9D1BD4602B080BDC04600100240A1
:1004140000200240FF7FC0FF80B582B000AF002300
:100424007B6000F01FF800237B6002E07B680133EF
:100434007B607A68094B9A42F8D9094BAA229A82BE
:1004440000237B6002E07B6801337B607A68034BA6
:100454009A42F8D9024B55229A82E4E7F5FF090043
:100464000004004880B500AF1E4B1E4A526980212B
:10047400C9020A435A611C4B1B4A126801210A43F0
:100484001A60194B184A126804210A431A60164B61
:10049400154A126810210A431A60134B124A126853
:1004A40040210A431A60104B0F4A12688021490008
:1004B4000A431A600C4B0C4A12688021C9000A4393
:1004C4001A60094B084A1268802149010A431A60DC
:1004D400054B054A12688021C9010A431A60BD46CA
:0C04E40080BDC04600100240000400482B
:1004F0007856341214000020000000003254769820
:04000005080000C52A
:00000001FF
