:020000040800F2
:1000000000200020D5010008DD010008E101000802
:1000100000000000000000000000000000000000E0
:10002000000000000000000000000000E5010008E2
:100030000000000000000000E9010008ED010008D8
:10004000F1010008F1010008F1010008F1010008C8
:10005000F1010008F1010008F1010008F1010008B8
:10006000F1010008F1010008F1010008F1010008A8
:10007000F1010008F1010008F1010008F101000898
:10008000F1010008F101000800000000F101000882
:10009000F1010008F1010008F1010008F101000878
:1000A000F1010008F1010008F1010008F101000868
:1000B000F101000800000000F1010008000000004C
:1000C0005FF808F130B583B0314B324A1360324AE1
:1000D0001360324B3249002201E01A6004338B4234
:1000E000FBD32C4B1B68002B03D12B4B1B68002B25
:1000F00000D0FEE7264B2B4A13602B4A13602B4B94
:100100002B4A2C4903E010681860043304328B42F8
:10011000F9D3244B1A68284B9A4204D1224B1A680F
:100120001B689A4200D0FEE700F06EF801A869460D
:1001300000F062F8214B224DED1AAD10002404E0CE
:10014000A3001E4A9B5898470134A542F8DC1D4B7A
:100150001D4DED1AAD10002404E0A30019481B58F2
:1001600098470134A542F8DC0198009900F00EF997
:10017000051C164B164CE41AA41004E0013CA30025
:10018000124A9B589847002CF8DC281C00F032F8E3
:10019000BABADECA100000201800002010000020AB
:1001A0001C000020000000200C00002000000020A7
:1001B000940300081000002078563412F40100085F
:1001C000F4010008F4010008F4010008F40100083B
:1001D000F401000808B5FFF775FFC046FEE7C0460A
:1001E000FEE7C046FEE7C046FEE7C046FEE7C04663
:0401F000FEE7C04620
:1001F400FEE7C04601230360014B0B607047C04615
:100204000400002008B500F05BF808BD82B00023AC
:1002140001930093274B1968802252020A431A6003
:10022400191C80229202A020C0010B681340009385
:10023400019B01330193009B002B02D1019B83425C
:10024400F3D11C4B1B689A0302D50123009301E0F0
:1002540000230093009B012B2AD11122164B1A6014
:10026400144B5A685A605A685A605968134A0A40CB
:100274005A605968882252030A435A6019688022D6
:1002840052040A431A60191C802292040B68134218
:10029400FCD0084B5A6803218A435A6059680222E9
:1002A4000A435A60191C0C224B681340082BFBD1DB
:1002B40002B070470010024000200240FF7FC0FFE0
:1002C40008B5124B19680122114319605868104986
:1002D4000140596018680F490140196018680E49B7
:1002E4000140196058680D4901405960D96A0F20CE
:1002F4008143D962186B0A4901401963596B9143D0
:10030400596300229A60FFF781FF08BD0010024084
:100314000CB8FF08FFFFF6FEFFFFFBFFFFFFC0FF67
:10032400ACFEFFFF164B59698022D2020A435A6180
:10033400144B196801220A431A60196804220A43FB
:100344001A60196810220A431A60196840220A4385
:100354001A601968802252000A431A6019688022C0
:10036400D2000A431A601968802252010A431A60B3
:1003740019688022D2010A431A600F229A827047B8
:10038400001002400004004808B5FFF7CBFFFEE769
:10039400785634121400002000000000325476987D
:04000005080000C52A
:00000001FF
