:020000040800F2
:1000000000200020D5010008DD010008E101000802
:1000100000000000000000000000000000000000E0
:10002000000000000000000000000000E5010008E2
:100030000000000000000000E9010008ED010008D8
:10004000F1010008F1010008F1010008F1010008C8
:10005000F1010008F1010008F1010008F1010008B8
:10006000F1010008F1010008F1010008F1010008A8
:10007000F1010008F1010008F1010008F101000898
:10008000F1010008F101000800000000F101000882
:10009000F1010008F1010008F1010008F101000878
:1000A000F1010008F1010008F1010008F101000868
:1000B000F101000800000000F1010008000000004C
:1000C0005FF808F130B583B0314B324A1360324AE1
:1000D0001360324B3249002201E01A6004338B4234
:1000E000FBD32C4B1B68002B03D12B4B1B68002B25
:1000F00000D0FEE7264B2B4A13602B4A13602B4B94
:100100002B4A2C4903E010681860043304328B42F8
:10011000F9D3244B1A68284B9A4204D1224B1A680F
:100120001B689A4200D0FEE700F06EF801A869460D
:1001300000F062F8214B224DED1AAD10002404E0CE
:10014000A3001E4A9B5898470134A542F8DC1D4B7A
:100150001D4DED1AAD10002404E0A30019481B58F2
:1001600098470134A542F8DC0198009900F006FA9E
:10017000051C164B164CE41AA41004E0013CA30025
:10018000124A9B589847002CF8DC281C00F032F8E3
:10019000BABADECA100000201800002010000020AB
:1001A0001C000020000000200C00002000000020A7
:1001B000F00500081000002078563412F401000801
:1001C000F4010008F4010008F4010008F40100083B
:1001D000F401000808B5FFF775FFC046FEE7C0460A
:1001E000FEE7C046FEE7C046FEE7C046FEE7C04663
:0401F000FEE7C04620
:1001F400FEE7C04601230360014B0B607047C04615
:100204000400002008B500F05BF808BD82B00023AC
:1002140001930093274B1968802252020A431A6003
:10022400191C80229202A020C0010B681340009385
:10023400019B01330193009B002B02D1019B83425C
:10024400F3D11C4B1B689A0302D50123009301E0F0
:1002540000230093009B012B2AD11122164B1A6014
:10026400144B5A685A605A685A605968134A0A40CB
:100274005A605968882252030A435A6019688022D6
:1002840052040A431A60191C802292040B68134218
:10029400FCD0084B5A6803218A435A6059680222E9
:1002A4000A435A60191C0C224B681340082BFBD1DB
:1002B40002B070470010024000200240FF7FC0FFE0
:1002C40008B5124B19680122114319605868104986
:1002D4000140596018680F490140196018680E49B7
:1002E4000140196058680D4901405960D96A0F20CE
:1002F4008143D962186B0A4901401963596B9143D0
:10030400596300229A60FFF781FF08BD0010024084
:100314000CB8FF08FFFFF6FEFFFFFBFFFFFFC0FF67
:10032400ACFEFFFF82B0002301934300181804E0E1
:10033400C046C046019B01330193019B8342F7D31E
:1003440002B0704710B51420FFF7ECFF084CA26907
:1003540080231B061343A3611420FFF7E3FFA26964
:1003640080231B021343A3611420FFF7DBFF10BD9E
:100374000008004810B5041C012906D14A4B9969AC
:100384008022D2010A439A6107E0002905D1464B35
:1003940099698022D2050A439A6163B2002B07DA75
:1003A4009023DB059969802212020A439A6106E0D0
:1003B4009023DB059969802212060A439A61630639
:1003C40007D59023DB059969802252010A439A617B
:1003D40006E09023DB059969802252050A439A615D
:1003E400A30606D5314B9969802292000A439A618B
:1003F40005E02E4B9969802292040A439A61E30630
:1004040006D52A4B9969802252000A439A6105E075
:10041400264B9969802252040A439A61FFF792FF9E
:10042400230707D59023DB059969802212020A432A
:100434009A6106E09023DB059969802212060A433B
:100444009A61630707D59023DB05996980225201DD
:100454000A439A6106E09023DB05996980225205DC
:100464000A439A61A30706D5104B9969802292002A
:100474000A439A6105E00D4B9969802292040A436C
:100484009A61E30706D5094B9969802252000A4311
:100494009A6105E0054B9969802252040A439A61E6
:1004A400FFF750FF10BDC046000800480004004894
:1004B40038B5051C002403E00121FFF75BFF01347C
:1004C400285D0028F8D138BD08B50021FFF752FF98
:1004D4000148FFF727FF08BDB80B000010B52248FC
:1004E400FFF720FF214B5969802212030A435A6106
:1004F4005A698021C9020A435A61586980229202CA
:1005040002435A611A4B18688022520502431A604A
:1005140018688022D20510431860164B1C6880208E
:100524004002204318601868014319609023DB05DA
:100534001868802149040143196019680A431A6044
:100544003320FFF7C1FF3320FFF7BEFF3220FFF750
:10055400BBFF0C20FFF7B8FF2820FFF7B5FF0120F1
:10056400FFF7B2FF10BDC046307500000010024016
:10057400000800480004004808B5FFF7AFFF012059
:10058400FFF7A2FF0D48FFF793FFC020FFF79CFF82
:100594000B48FFF78DFF0B4B1A680B490A431A608F
:1005A40000200A4A191C031C00E001339342FCDDBD
:1005B4008B8A01339BB28B82F5E7C046D4050008D1
:1005C400E00500080004004855550000FEFF000047
:1005D40048656C6C6F20576F726C64005265766965
:0C05E40073696F6E2031206E6577000097
:1005F000785634121400002000000000325476981F
:04000005080000C52A
:00000001FF
