:020000040800F2
:1000000000200020D5010008DD010008E101000802
:1000100000000000000000000000000000000000E0
:10002000000000000000000000000000E5010008E2
:100030000000000000000000E9010008ED010008D8
:10004000F1010008F1010008F1010008F1010008C8
:10005000F1010008F1010008F1010008F1010008B8
:10006000F1010008F1010008F1010008F1010008A8
:10007000F1010008F1010008F9120008F10100087F
:10008000F1010008F101000800000000F101000882
:10009000F1010008F1010008F1010008F101000878
:1000A000F1010008F1010008F1010008F101000868
:1000B000F101000800000000F1010008000000004C
:1000C0005FF808F130B583B0314B324A1360324AE1
:1000D0001360324B3249002201E01A6004338B4234
:1000E000FBD32C4B1B68002B03D12B4B1B68002B25
:1000F00000D0FEE7264B2B4A13602B4A13602B4B94
:100100002B4A2C4903E010681860043304328B42F8
:10011000F9D3244B1A68284B9A4204D1224B1A680F
:100120001B689A4200D0FEE700F0A0FD01A86946D6
:1001300000F090FD214B224DED1AAD10002404E09B
:10014000A3001E4A9B5898470134A542F8DC1D4B7A
:100150001D4DED1AAD10002404E0A30019481B58F2
:1001600098470134A542F8DC0198009901F0A8F8FD
:10017000051C164B164CE41AA41004E0013CA30025
:10018000124A9B589847002CF8DC281C00F03AFDD6
:10019000BABADECA74000020A80000207400002053
:1001A000AC000020000000207000002000000020B3
:1001B000781D00087400002078563412F4010008FD
:1001C000F4010008F4010008F4010008F40100083B
:1001D000F401000808B5FFF775FFC046FEE7C0460A
:1001E000FEE7C046FEE7C046FEE7C046FEE7C04663
:0401F000FEE7C04620
:1001F400F8B5051C0E1C9023DB05984212D03D4B2C
:1002040098420FD03C4B98420CD03C4B984209D0BA
:100214003B4B984206D03B4B984203D03A48B4211A
:1002240000F01EFD3368002B03D13748B52100F0E0
:1002340017FD3379032B03D93348B62100F010FDA1
:10024400F379022B03D93048B72100F009FD0024CB
:1002540001274BE03B1CA34032681A409A4244D128
:100264003379013B012B28D87379012B05D9032B52
:1002740003D02548C72100F0F3FCAA6863000321DA
:1002840099408A43AA60AA68717999400B1C134368
:10029400AB60B379012B03D91B48CE2100F0E0FCFD
:1002A400AA8823041B0C391C99408A43AA80AA8873
:1002B400B17999408BB21343AB8029686300032260
:1002C400101C984081432960286831799940014382
:1002D4002960E9682004C00B82409143E960EA6820
:1002E400F17999400B1C1343EB6001340F2CB1D905
:1002F400F8BDC0460004004800080048000C00484F
:1003040000100048001400485C1C000870B5041C70
:100314000D1C161C9023DB05984212D0174B9842F3
:100324000FD0174B98420CD0164B984209D0164B5D
:10033400984206D0154B984203D01548154900F051
:100344008FFC0F2D03D91248134900F089FC072EA6
:1003540003D90F48114900F083FC07232B409B006D
:100364009E40E908083189000A590F2098408243C9
:100374000A510B591E430E5170BDC046000400487B
:1003840000080048000C0048001000480014004811
:100394005C1C00080D0200000E0200000F020000A9
:1003A40070B5041C8378012B03D91A48522100F03C
:1003B40057FC6378032B03D91648532100F050FCF3
:1003C400A378002B1BD02578AA08134BC0329200C7
:1003D400D65803210D40E900FF20051C8D40AE4393
:1003E400351C6678B60130408840011C2943D15041
:1003F40022781F210A4001219140196008E02378E6
:100404001F21194001238B40191C8023024AD1501B
:1004140070BDC046901C000800E100E038B5041C23
:100424000D1C0D4B184201D1002803D10B480C4977
:1004340000F016FC012D03D908480A4900F010FC0D
:10044400002D04D0084B5A6914435C6103E0064B49
:100454005A69A2435A6138BDAAFF81FEC41C000830
:1004640036050000370500000010024038B5041CB2
:100474000D1C0D4B184201D1002803D10B480C4927
:1004840000F0EEFB012D03D908480A4900F0E8FB0F
:10049400002D04D0084B9A6914439C6103E0064B79
:1004A4009A69A2439A6138BDFEA5B8FFC41C00082E
:1004B4005A0500005B0500000010024070B5048C72
:1004C4000125AC430484058B048CF326B5431B013E
:1004D4009BB21A432A430A239C4321430123194311
:1004E4000283018470BDC04670B5048C1025AC43F2
:1004F4000484068B058C09018CB2084931401B0326
:100504009BB20B43120292B21A43A023291C9943B3
:100514002143102319430283018470BDFF0C0000A2
:1005240070B5058C0B4C2C400484868B058C090219
:100534008CB2F3218E431B019BB21A433243064B08
:10054400291C1940214380235B00194382830184C1
:1005540070BDC046FFFEFFFFFFF5FFFF70B5058CC1
:100564000C4C2C400484868B058C09038CB20A49FC
:100574003140120292B20A431B039BB21A43074B47
:10058400291C1940214380235B0119438283018480
:1005940070BDC046FFEFFFFFFF0C0000FF5F0000CF
:1005A40038B5041C0D1C194B98421DD08023DB0563
:1005B400984219D0164B984216D0164B984213D035
:1005C400154B984210D0154B98420DD0144B9842BD
:1005D4000AD0144B984207D0134B984204D01348C6
:1005E4009721890000F03CFB012D03D90F481049E5
:1005F40000F036FB002D04D022880123134323800E
:1006040003E0238801229343238038BD002C01405A
:10061400000400400010004000140040002000408E
:10062400004001400044014000480140F41C00081F
:100634005D02000010B5041C094B98420DD08023C4
:10064400DB05984209D0074B984206D0064B9842E6
:1006540003D00648064900F003FBA06B10BDC0465A
:10066400002C01400004004000400140F41C00083C
:100674009E08000038B5041C0D1C174B984216D078
:100684008023DB05984212D0144B98420FD0144BB0
:1006940098420CD0134B984209D0134B984206D081
:1006A400124B984203D01248124900F0D9FA002D97
:1006B40009D0042D07D0082D05D00C2D03D00C48EB
:1006C4000D4900F0CDFA238B0C2293432383238B13
:1006D4001D43258338BDC046002C01400004004062
:1006E4000020004000400140004401400048014017
:1006F400F41C0008D1080000D208000038B5041C1E
:100704000D1C134B98420DD08023DB05984209D071
:10071400104B984206D0104B984203D00F48104912
:1007240000F09EFA002D09D0042D07D0082D05D025
:100734000C2D03D009480B4900F092FA228B0A4B86
:1007440013402383238B2D02ADB21D43258338BD73
:10075400002C01400004004000400140F41C00084B
:10076400E9080000EA080000FFF3FFFF38B5041CA5
:100774000D1C114B98420AD08023DB05984206D009
:100784000E4B984203D00E480E4900F069FA002D32
:1007940009D0042D07D0082D05D00C2D03D008480E
:1007A400094900F05DFAA38B0C229343A383A38B26
:1007B4001D43A58338BDC046002C01400004004001
:1007C400F41C0008010900000209000038B5041CEB
:1007D4000D1C124B98420AD08023DB05984206D0A8
:1007E4000F4B984203D00F480F4900F039FA002DFF
:1007F40009D0042D07D0082D05D00C2D03D00948AD
:100804000A4900F02DFAA28B094B1340A383A38B52
:100814002D02ADB21D43A58338BDC046002C014056
:1008240000040040F41C0008190900001A09000023
:10083400FFF3FFFF38B5041C0D1C644B984216D01F
:100844008023DB05984212D0614B98420FD0614B54
:1008540098420CD0604B984209D0604B984206D025
:100864005F4B984203D05F485F4900F0F9F92B8849
:10087400002B09D0042B07D0082B05D00C2B03D058
:1008840058485A4900F0ECF9AB88013B9BB2022B63
:1008940003D95448564900F0E3F9EB88002B09D0FA
:1008A400042B07D0082B05D00C2B03D04D485149FD
:1008B40000F0D6F92B890F2B03D94A484E4900F092
:1008C400CFF96B88002B07D0022B05D00A2B03D05D
:1008D40044484A4900F0C4F92B88002B24D13B4BEF
:1008E4009C4216D08023DB059C4212D0384B9C429C
:1008F4000FD0384B9C420CD0374B9C4209D0374B1D
:100904009C4206D0364B9C4203D036483C4900F00A
:10091400A7F96988AA882B89201CFFF7CFFDE988ED
:10092400201CFFF7A7FE50E0042B1BD1274B9C4251
:100934000DD08023DB059C4209D0254B9C4206D078
:10094400254B9C4203D027482E4900F089F9698839
:10095400AA882B89201CFFF7C7FDE988201CFFF714
:10096400CDFE32E0082B18D1184B9C420AD08023CC
:10097400DB059C4206D0164B9C4203D01948224901
:1009840000F06EF96988AA882B89201CFFF7C8FD3E
:10099400E988201CFFF7EAFE17E00C4B9C420AD0C2
:1009A4008023DB059C4206D0094B9C4203D00D48B2
:1009B400164900F055F96988AA882B89201CFFF78D
:1009C400CDFDE988201CFFF701FF38BD002C014054
:1009D4000004004000200040004001400044014069
:1009E40000480140F41C00080A0800000B0800003D
:1009F4000C0800000D0800000E0800000F0800009D
:100A0400130800001D08000027080000310800003A
:100A140070B5041C0D1C161C1D4B98421DD0802360
:100A2400DB05984219D01B4B984216D01A4B9842BA
:100A340013D01A4B984210D0194B98420DD0194B31
:100A440098420AD0184B984207D0184B984204D0C9
:100A540017489521090100F003F9FF232A1C9A4342
:100A640001D1002D03D11248124900F0F9F8012EEA
:100A740003D90F48104900F0F3F8002E03D0A389DE
:100A84001D43A58102E0A389AB43A38170BDC04689
:100A9400002C0140000400400010004000140040FD
:100AA4000020004000400140004401400048014053
:100AB400F41C0008510900005209000038B5041C58
:100AC4000D1C204B98421CD08023DB05984218D083
:100AD4001D4B984215D01D4B984212D01C4B984286
:100AE4000FD01C4B98420CD01B4B984209D01B4B87
:100AF400984206D01A4B984203D01A481A4900F07B
:100B0400AFF86B1E9BB2012B0FD9042D0DD0082D0D
:100B14000BD0102D09D0202D07D0402D05D0802DCD
:100B240003D01048114900F09BF8238AA2892A4077
:100B34002B4203D0002A03D1002002E0002000E071
:100B4400012038BD002C014000040040001000408A
:100B540000140040002000400040014000440140D7
:100B640000480140F41C0008F7090000F8090000DF
:100B740038B5041C0D1C174B98421CD08023DB0590
:100B8400984218D0144B984215D0144B984212D066
:100B9400134B98420FD0134B98420CD0124B9842EF
:100BA40009D0124B984206D0114B984203D01148F9
:100BB400114900F055F8FF232A1C9A4301D1002D56
:100BC40003D10C480D4900F04BF8ED43ADB225823A
:100BD40038BDC046002C0140000400400010004015
:100BE4000014004000200040004001400044014047
:100BF40000480140F41C0008240A0000250A0000F3
:100C0400FEE7C04608B50120FFF7FAFF08B50D4B13
:100C14001B68002B02D10C4A0A4B1A60094B1B6853
:100C24000330032290431818084A904206D900F072
:100C3400FFFB0C2303600120404202E0014A1060E4
:100C4400181C08BD78000020AC000020001C002007
:100C540001230360014B0B607047C0460400002071
:100C640008B5FFF7CFFFC04608B500F05BF808BD34
:100C740082B0002301930093274B1968802252020B
:100C84000A431A60191C80229202A020C0010B683A
:100C940013400093019B01330193009B002B02D16D
:100CA400019B8342F3D11C4B1B689A0302D5012399
:100CB400009301E000230093009B012B2AD1112211
:100CC400164B1A60144B5A685A605A685A6059682D
:100CD400134A0A405A605968882252030A435A60E8
:100CE4001968802252040A431A60191C8022920453
:100CF4000B681342FCD0084B5A6803218A435A609C
:100D0400596802220A435A60191C0C224B6813408A
:100D1400082BFBD102B070470010024000200240B3
:100D2400FF7FC0FF08B5124B1968012211431960F7
:100D3400586810490140596018680F49014019600A
:100D440018680E490140196058680D4901405960FE
:100D5400D96A0F208143D962186B0A49014019638B
:100D6400596B9143596300229A60FFF781FF08BDD4
:100D7400001002400CB8FF08FFFFF6FEFFFFFBFF68
:100D8400FFFFC0FFACFEFFFF82B0002301934300CE
:100D9400181804E0C046C046019B01330193019B2F
:100DA4008342F7D302B0704710B51420FFF7ECFF6D
:100DB400084CA26980231B061343A3611420FFF788
:100DC400E3FFA26980231B021343A3611420FFF7EE
:100DD400DBFF10BD0008004810B5041C012906D132
:100DE4004A4B99698022D2010A439A6107E000299B
:100DF40005D1464B99698022D2050A439A6163B2B0
:100E0400002B07DA9023DB059969802212020A433A
:100E14009A6106E09023DB059969802212060A4351
:100E24009A61630607D59023DB05996980225201F4
:100E34000A439A6106E09023DB05996980225205F2
:100E44000A439A61A30606D5314B99698022920020
:100E54000A439A6105E02E4B9969802292040A4361
:100E64009A61E30606D52A4B9969802252000A4307
:100E74009A6105E0264B9969802252040A439A61DB
:100E8400FFF792FF230707D59023DB05996980229A
:100E940012020A439A6106E09023DB0599698022D5
:100EA40012060A439A61630707D59023DB05996903
:100EB400802252010A439A6106E09023DB05996976
:100EC400802252050A439A61A30706D5104B9969FB
:100ED400802292000A439A6105E00D4B99698022B1
:100EE40092040A439A61E30706D5094B9969802263
:100EF40052000A439A6105E0054B99698022520425
:100F04000A439A61FFF750FF10BDC046000800482D
:100F14000004004838B5051C002403E00121FFF754
:100F24005BFF0134285D0028F8D138BD08B50021E5
:100F3400FFF752FF0148FFF727FF08BDB80B000079
:100F440010B52248FFF720FF214B59698022120374
:100F54000A435A615A698021C9020A435A6158698D
:100F64008022920202435A611A4B18688022520569
:100F740002431A6018688022D20510431860164B89
:100F84001C688020400220431860186801431960DF
:100F94009023DB051868802149040143196019680E
:100FA4000A431A603320FFF7C1FF3320FFF7BEFF67
:100FB4003220FFF7BBFF0C20FFF7B8FF2820FFF714
:100FC400B5FF0120FFF7B2FF10BDC0463075000029
:100FD40000100240000800480004004830B587B003
:100FE400802000010121FFF741FA802080020121C5
:100FF400FFF714FA01A980239B00019302230B71CC
:1010040003234B7100258D71CD719024E405201CC0
:10101400FFF7EEF8201C09210222FFF777F903A954
:1010240004230B800A234B8001238B80CD800F4C3B
:10103400228D2023134323850D81201CFFF7FAFB07
:10104400201C0121FFF7ACFA201C04210122FFF728
:10105400DFFC0E236A461370002353700123937040
:101064006846FFF79DF907B030BDC046002C01402B
:101074002C4B59698022D2020A435A615969802251
:1010840092020A435A61D96901220A43DA61902221
:10109400D205116808230B431360234B1868802181
:1010A4008903014319601868802109040143196008
:1010B400106A202101431162596A802292000A4376
:1010C4005A62596A802292010A435A628023DB05DC
:1010D400164ADA62998B6022114389B29983988BFC
:1010E400C021C90108439883188B01431983998B44
:1010F4000A4392B29A8300229A63DA631A64198CBF
:10110400802252000A431A84198C802252010A4315
:101114001A84198C10220A431A84198801220A435A
:101124001A807047001002400004004800A60E0018
:101134001E4B59698022D2020A435A61D96902229C
:101144001143D9611A4B19680A431A6019680822B5
:101154000A431A60196A012211431962186A10219C
:1011640001431962134B188D134901431985F0216A
:101174008900D962988B602101439983988BC0219F
:10118400C90101439983DA6300221A64198C80220D
:1011940052000A431A84198C802252010A431A8489
:1011A400198801220A431A807047C0460010024081
:1011B400000400480004004088130000144B5969DF
:1011C400802292020A435A619023DB051A680321A4
:1011D4008A431A601A680C218A431A601A683021FB
:1011E4008A431A601A68C0218A431A60D9680122A6
:1011F4000A43DA60D96804220A43DA60D968102203
:101204000A43DA60D96840220A43DA607047C0466C
:101214000010024082B00023019300220AE00092F1
:1012240002E0009B01330093009B8342F9D3019BAE
:1012340001330193019B8342F1D302B07047C0464E
:10124400024B1868024B1B68C01A704790000020BC
:101254008400002010B5021C034C201C034900F03C
:10126400EDF8201C10BDC046A0000020241D00087D
:1012740008B50120FFF75AFE0C48FFF74BFE0C4B54
:101284001868FFF7E7FFFFF745FE0A48FFF742FE3D
:10129400C020FFF74BFE0848FFF73CFEFFF7D0FFE6
:1012A400FFF7D8FFFFF736FE08BDC046281D00082B
:1012B40084000020341D0008381D000870B5FFF7B5
:1012C4007DFFFFF73DFEFFF789FEFFF7D1FEFFF735
:1012D4002FFF064E064DFA246400FFF7C9FF2B6862
:1012E4003360201CFFF796FFF7E7C046900000200C
:1012F4008400002008B51F480421FFF7DFFB012804
:1013040037D11C480421FFF733FC1B4B1B88002BEF
:1013140008D11848FFF78EF9184B18800122164B94
:101324001A8026E0012B24D11248FFF783F980B2FA
:10133400134B1880114B1B88984203D9C31A114AC6
:1013440013600AE0984205D2C31A0F4A9B180D4A4B
:10135400136002E000220B4B1A600A4B186840012C
:10136400AE21090100F014F8084B18600022024B6A
:101374001A8008BD002C0140880000208A0000204B
:101384008C00002080000020FFFF0000840000206B
:10139400002934D00123002210B488422CD3012424
:1013A4002407A14204D2814202D209011B01F8E7B9
:1013B400E400A14204D2814202D249005B00F8E772
:1013C400884201D3401A1A434C08A04202D3001B9E
:1013D4005C0822438C08A04202D3001B9C082243D1
:1013E400CC08A04202D3001BDC082243002803D00F
:1013F4001B0901D00909E3E7101C10BC7047002841
:1014040001D00020C04307B4024802A14018029052
:1014140003BDC046190000000029F0D003B5FFF752
:10142400B9FF0EBC4243891A1847C0467047C046EC
:10143400014B18687047C0466C0000200EB400B51C
:101444009CB01DAB04CB822202A992008A810A4A75
:1014540002908A604A6101225242CA81074A0861A5
:1014640010681D9A019300F06BF8029A0023137020
:101474001CB008BC03B01847FFFFFF7F6C000020BE
:10148400F0B58D6885B0071C0C1C03920193AB4228
:1014940045D390228B89D20013423DD06269032642
:1014A400564309692068F20F401A96190290021CEB
:1014B4000198013212187610964200D2161C381C7C
:1014C4005A050FD5311C00F02BFB051E13D0029AD0
:1014D400216900F0BAFAA289184B13408022134301
:1014E400A38111E0321C00F06FFB051E0CD1381CE7
:1014F400216900F0CDFA0C233B60A38940221343F9
:101504000120A381404217E0029B2561ED1825606C
:101514006661019DF61AA6600198A84200D2019D59
:101524002A1C2068039900F099FAA2680020531B32
:10153400A36023685D19256005B0F0BD7FFBFFFF44
:10154400F0B59FB0039005938B890E1C171C1906E8
:101554000FD53269002A0CD1402100F0E1FA306045
:101564003061002803D103990C230B60C9E04023A8
:10157400736106AD00236B6120236B763023AB7659
:101584003C1C2378002B03D1E21B029211D003E010
:10159400252BF9D00134F4E70398311C3A1C029B43
:1015A400FFF76EFF013000D1A6E06969029A8B183B
:1015B4006B612378002B00D19EE0012252426A60C5
:1015C4006A4600235B3201342B60EB60AB6013701E
:1015D400AB654E4F2178381C052200F02BFA002809
:1015E40007D0C71B2B680120B8401843286001347A
:1015F400EFE72B68D90603D56A4620215B321170C8
:101604001A0703D56A462B215B32117022782A2AE5
:1016140001D0099B0EE0059A111D12680591002A5C
:1016240001DB099204E05242EA60022213432B6078
:10163400013409E02278303A092A04D80A214B43BC
:1016440001349B18F6E7099323782E2B18D163787D
:101654002A2B09D1059B02341A1D1B680592002B05
:101664000DDA01235B420AE0013400232278303A88
:10167400092A04D80A214B4301349B18F6E707933F
:10168400234F2178381C032200F0D4F9002806D017
:10169400C71B2B684020B8401843286001342178C8
:1016A4001C480622671C297600F0C4F9002812D0D1
:1016B400194B002B06D1059B0722073393430833AC
:1016C400059314E005AB00930398291C321C134BBB
:1016D40000E000BF07E005AB00930398291C321C0F
:1016E4000E4B00F091F804900499013104D06A691A
:1016F400049953186B6143E7B3895A0601D40B98D4
:1017040001E0012040421FB0F0BDC046421D000868
:10171400481D00084C1D0008000000008514000846
:10172400F7B5151C01930A698B68061C0C1C9342BF
:1017340000DA131C221C2B6043321278002A01D0D9
:1017440001332B602068800602D52B6802332B609E
:10175400216806270F401FD0231C43331B785A1ED1
:101764009341226892061FD5E11840313020C87099
:10177400211C5A1C45310978A21840320233D17019
:1017840012E0221C301C019919320123089FB8472A
:10179400013011D0009F01370097E0682968009F4D
:1017A400431A9F42EDDBD7E7221C301C01994332D8
:1017B400089FB847013002D10120404223E020684D
:1017C40006212B68E26801400025042903D1D51ABB
:1017D400EB43DB171D40A26823699A4201DDD31A4B
:1017E400ED1800270097009FAF420BDA221C301C33
:1017F40001991A320123089FB8470130DCD0009FB9
:101804000137EFE70020FEBDF0B50D1C8BB043356A
:1018140006920590079304950B7E0C1C109A6E2B70
:1018240000D1A7E011D8632B22D009D8002B00D116
:10183400B0E0582B00D0C0E045310B707B4D4EE03A
:10184400642B1CD0692B1AD0B7E0732B00D1A5E010
:1018540009D86F2B29D0702B00D0AEE00E6820235E
:1018640033430B6036E0752B1FD0782B32D0A4E0C5
:1018740013680D1C191D423511601B689FE0216817
:1018840013680E0603D5191D11601E6805E048068D
:10189400F9D5191D116000215E5E644B002E3BDA00
:1018A400049D2D2276422A7036E0216813680E06C4
:1018B40003D5191D11601E6804E04806F9D5191DE9
:1018C4001E881160594B227E039308276F2A1ED06D
:1018D4000A271CE0231C78214533554D19701168E3
:1018E4002368081D039510601E0601D50E6802E0EA
:1018F4005806FBD50E88D90702D52022134323604E
:101904001027002E03D1226820239A432260231C2F
:10191400002243331A7001E003930A276368A3602B
:10192400002B03DB2568042295432560002E02D199
:10193400049D002B0ED0049D301C391CFFF76CFD58
:101944000398013D435C301C2B70391CFFF720FDCC
:10195400061EF1D1082F09D12168C90706D562688E
:1019640023699A4202DC013D30232B70049E731BD1
:1019740023612AE0086813684969050604D5181D1F
:1019840010601B68196005E04606F8D5181D106044
:101994001B68198000232361049D16E01368191D38
:1019A40011601D68281C00F047F9636820619842A3
:1019B40000D923612069606004E0251C42352B7046
:1019C40001232361049E00233370079E059800962B
:1019D400211C09AA069BFFF7A3FE013002D10120B6
:1019E400404221E02A1C059806992369079DA847CF
:1019F4000130F4D02668B60705D4099BE068984204
:101A040012DA181C10E00025E0680999431A9D4277
:101A1400F3DA221C0598069919320123079EB04770
:101A24000130DCD00135EFE70BB0F0BD531D0008E9
:101A3400641D0008C9B28218904204D003788B4216
:101A440002D00130F8E70020704710B5002393421C
:101A540003D0CC5CC4540133F9E710BD70B58142A6
:101A640001D300230CE08C18A042FAD28518131C71
:101A7400013B0BD351426618F65C6918CE54F7E764
:101A8400934203D0CC5CC4540133F9E770BD000029
:101A940030B5002940D004390B68002B00DAC9188E
:101AA4001E4A1368141C002B02D14B60116033E0F2
:101AB40099420FD208680A189A4205D113685268ED
:101AC400C01808604A6000E04B60216024E08A424C
:101AD40003D8131C5A68002AF9D11D685C198C427A
:101AE4000BD10968691858181960904214D1146808
:101AF4005268091919605A600EE08C4202D90C230D
:101B0400036009E008680C18944203D11468526811
:101B1400001908604A60596030BDC0469800002032
:101B240070B50323CD1C9D430835061C0C2D01D232
:101B34000C2501E0002D3FDB8D423DD3204B1C687A
:101B44001A1C211C002913D00868431B0DD40B2B2D
:101B540002D90B60CC181EE08C4202D1636813607A
:101B64001AE0486860600C1C16E00C1C4968E9E740
:101B7400144C2068002803D1301C00F04BF820607E
:101B8400301C291C00F046F8431C15D0C41C032348
:101B94009C4384420AD12560201C0B300722231D5C
:101BA4009043C31A0BD05A42E25008E0211A301C69
:101BB40000F030F80130EED10C233360002070BD0A
:101BC4009800002094000020F8B5061C0C1C151C7D
:101BD400002904D1111CFFF7A3FF041C18E0002AFC
:101BE40003D1FFF755FF2C1C12E000F02CF8A8429B
:101BF4000ED2301C291CFFF793FF071E07D0211CAF
:101C04002A1CFFF722FF301C211CFFF741FF3C1C5C
:101C1400201CF8BD38B5074C0023051C081C2360A4
:101C2400FEF7F4FF431C03D12368002B00D02B6084
:101C340038BDC0469C0000200023C25C0133002A4A
:101C4400FBD1581E704704390B68181F002B02DAA9
:101C5400C8581B18181F70472E2E2F73797374657C
:101C64006D2F7372632F73746D333266302D7374FA
:101C7400647065726970682F73746D33326630787E
:101C8400785F6770696F2E63000000002E2E2F733B
:101C9400797374656D2F7372632F73746D33326649
:101CA400302D7374647065726970682F73746D334A
:101CB40032663078785F6D6973632E6300000000CC
:101CC4002E2E2F73797374656D2F7372632F737453
:101CD4006D333266302D7374647065726970682F69
:101CE40073746D3332663078785F7263632E630089
:101CF4002E2E2F73797374656D2F7372632F737423
:101D04006D333266302D7374647065726970682F38
:101D140073746D3332663078785F74696D2E630046
:101D24002564000044697374616E63653A200000A1
:101D340020636D0053706565643A20004300232DD1
:101D4400302B2000686C4C006566674546470030C0
:101D5400313233343536373839414243444546000D
:101D6400303132333435363738396162636465660D
:011D7400006E
:101D7800785634127C0000200000000000000000AB
:101D8800000000000000000000000000000000004B
:101D9800000000000000000000000000401D0008D6
:101DA800000000000000000000000000000000002B
:101DB800000000000000000000000000000000001B
:101DC800000000000000000000000000000000000B
:101DD8000000000000000000000000000C000020CF
:041DE8003254769863
:04000005080000C52A
:00000001FF
